:020000040800F2
:10000000084D0020C1010008A92400084923000868
:10001000A524000805030008852B00080000000047
:10002000000000000000000000000000C1260008E1
:10003000250500080000000051260008E5260008FC
:10004000DB010008DB010008DB010008DB01000820
:10005000DB010008DB010008DB010008DB01000810
:1000600029050008DB010008DB010008DB010008AE
:10007000DB010008DB010008DB010008DB010008F0
:10008000DB010008DB010008DB010008DB010008E0
:100090000903000815030008DB010008DB01000864
:1000A000DB010008DB010008DB010008DB010008C0
:1000B000DB010008DB010008DB010008DB010008B0
:1000C000DB010008DB010008DB010008DB010008A0
:1000D000DB010008DB010008DB010008DB01000890
:1000E000DB010008DB010008DB010008DB01000880
:1000F000C5270008DB010008DB010008DB01000860
:10010000DB010008DB010008DB010008DB0100085F
:10011000DB010008DB010008DB010008DB0100084F
:10012000DB010008DB010008DB010008DB0100083F
:10013000DB010008DB010008DB010008DB0100082F
:10014000DB010008DB010008DB010008DB0100081F
:10015000DB010008DB010008DB010008792B000847
:10016000DB010008DB010008DB010008DB010008FF
:10017000DB010008DB010008DB01000800000000D3
:10018000DB010008DB010008DB010008DB010008DF
:10019000DB010008DB010008DB010008DB010008CF
:1001A0000000000000000000DB010008DFF80CD0B8
:1001B00000F090F800480047F12B0008084D00209F
:1001C0000648804706480047FEE7FEE7FEE7FEE7F1
:1001D000FEE7FEE7FEE7FEE7FEE7FEE7B1270008E1
:1001E000AD0100082DE9F05F0546002092469B46D0
:1001F00088460646814640241BE02846414647463D
:10020000224600F057F853465A46C01A914110D37F
:1002100011461846224600F03EF82D1A67EB0108F9
:100220004F4622460120002100F035F817EB000967
:100230004E41201EA4F10104DFDC484631462A4627
:100240004346BDE8F09FD2B201E000F8012B491E01
:10025000FBD270470022F6E710B513460A46044663
:100260001946FFF7F0FF204610BD30B50B4601469A
:1002700000202022012409E021FA02F59D4205D345
:1002800003FA02F5491B04FA02F52844151EA2F1EF
:100290000102F1DC30BD202A04DB203A00FA02F131
:1002A000002070479140C2F1200320FA03F3194364
:1002B00090407047202A04DB203A21FA02F0002106
:1002C000704721FA02F3D040C2F120029140084366
:1002D000194670471CB50948009009480190054629
:1002E000009C06E0E06840F0010394E807009847AE
:1002F0001034AC42F6D3FFF75DFF0000303F00083A
:10030000503F0008FEE7000040F2FC00C2F200008F
:1003100000F0ECBA40F2FC00C2F2000000F0E6BAD5
:1003200070B58AB040F2FC0401260020C2F200043D
:100330006D46CDE90606CDE90000CDE90200CDE924
:10034000040020462946089600F0D0F9204600F027
:1003500051FD2046022100F069F920462946049605
:1003600000F0C4F9204600F045FD2046102100F0C1
:100370005DF90AB070BD000040F2A004C2F20004B2
:1003800000204FF08041B0EE000AC4E90001C4E94A
:10039000020000BF022000F097F80A2002F0DAFE07
:1003A00094ED010AF6E70000F0B589B06FF0007037
:1003B00001904FF0FF3040F2FC0400900120C2F2A7
:1003C00000046D4603900026082703A920462A460C
:1003D00001230696CDE90466079700F03BF9022059
:1003E000CDE9030603A920462A460123CDE9056687
:1003F000079700F02FF9052000F08AFD0320CDE9D2
:10040000030603A920462A460123CDE9056607977E
:1004100000F020F90420CDE9030603A920462A466E
:100420000123CDE90566079700F014F9052000F0D7
:100430006FFD09B0F0BD0000F0B589B06FF04070FD
:1004400001904FF0FF3040F2FC0400900120C2F216
:1004500000046D4603900026082703A920462A467B
:1004600001230696CDE90466079700F0F3F8022011
:10047000CDE9030603A920462A460123CDE90566F6
:10048000079700F0E7F8052000F042FD0320CDE9D2
:10049000030603A920462A460123CDE905660797EE
:1004A00000F0D8F80420CDE9030603A920462A4627
:1004B0000123CDE90566079700F0CCF8052000F090
:1004C00027FD09B0F0BD000080B586B0B1EE041A7A
:1004D00030EE010AB2EE041A80EE010A9FED101A06
:1004E000002340F24842CDE900030820C2F2000296
:1004F000049040F2FC0093801360CDE90233C2F215
:100500000000012320EE010ABDEEC00A10EE101A11
:1005100049BAD180694600F09DF806B080BD00BFA1
:1005200000F07F4570470000042000F02FBD000060
:1005300072B600BFFEE7000080B582B040F2444CC6
:1005400042F68160C2F2000C4FF0030EC0F60000CC
:1005500005A180220023CDE900EC02F0A7FF02B044
:10056000BDE8804002F0D4BE53746172745461736C
:100570006B00000080B540F24800C2F2000001218B
:1005800002F04EF840F2E8000021C2F20000C4F28E
:100590007011816080BD000040F2E80640F2F4076F
:1005A0009FED208A9FED209A40F2080840F248050E
:1005B00040F2E404C2F200060020C2F20007C2F2D8
:1005C0000008C2F20005C2F200043080388800EE54
:1005D000100AB8EE400A20EE080AC0EE090A96EDAD
:1005E000020A4046C6ED010A01F060FFBDEEC00AF6
:1005F00010EE100A3080B7F90200B8EEC00A01EE22
:10060000100AF8EEC10A284601F050FF84ED000AF6
:10061000BDEEC00A10EE100A02F0C6FA052002F084
:1006200099FDD3E70000B44300F8FF4590F820207F
:10063000013A012A04D8006800F11402002004E005
:1006400000F1240201204FF4802113681943116046
:100650007047000010B590F820E0D0F800C0AEF16F
:10066000010EBEF1010FDCF808E010D81EF0E05FCB
:1006700013D0CEF3016E012000FA0EF018608B68E3
:100680008BB14868CC6844EAC00003430FE000F136
:10069000240101204FF4802223E000F124010120F5
:1006A0004FF400121DE00868CB6843EA40530CEB9E
:1006B0000E10C0F880310B69C0F88431097D012922
:1006C00005D100F5C2710B6843F480730B6051686B
:1006D000C0F88C11126800F5C071C0F888210020A4
:1006E00001220B681A430A6010BD000090F8202018
:1006F000013A012A30D8B0B546F20060C4F20000D9
:10070000026842F001020260026822F47C52026038
:10071000D1F814E0CC694A6A0368012C43EA02224A
:1007200002600EF01F024FF0010303FA02F2C369E8
:100730006FEA020C23EA0203C36113D02CBBC36827
:1007400003EA0C03C360CB688C8844EA034300EBE4
:10075000CE0423640B4611E0416A41F480214162DA
:1007600001207047C3681343C3600B688C8844EA58
:10077000034300EBCE04236401F10C038C681B8857
:1007800043EA044300EBCE04636443688D6943EAA3
:100790000204D1F810E0096A002D08BF03EA0C0436
:1007A00044604369BEF1000F43EA020408BF03EA54
:1007B0000C040129446102D1C1691143C16101687E
:1007C00021F0010101600020B0BD00007047000071
:1007D00010B590F82040013C012C77D8D0F800C02B
:1007E00000290CBFDCF80C40DCF81040A40773D0E3
:1007F0000CEB011CDCF8B0410CF5D87E14F00404BD
:100800009460DCF8B04119BFE4085460640D1460D2
:10081000DEF800400CF5DA7E04F00204D460DCF867
:10082000B44124075ABFDEF8004004F00F04082446
:100830001461DEF800400029C4F307249461DEF857
:1008400000404FEA14445461DCF8B8211A70026881
:1008500002EB0112D2F8B8214FEA12225A70026854
:1008600002EB0112D2F8B8214FEA12429A700268E4
:1008700002EB0112D2F8B8214FEA1262DA70026874
:1008800002EB0112D2F8BC211A71026802EB0112CC
:10089000D2F8BC214FEA12225A71026802EB01120F
:1008A000D2F8BC214FEA12429A71026802EB01129F
:1008B000D2F8BC214FEA1262DA7100680CBF00F175
:1008C0000C0100F11001002020220AE000F12401B7
:1008D00001204FF4802204E000F1240101204FF4B4
:1008E00000120B681A430A6010BD00002DE9F04F9A
:1008F00081B0044600684669D0F804908768D0F853
:100900000CB0D0F810A0D0F81880F10703D1002562
:1009100030071CD423E0F90710D00121BA07816009
:1009200009D4780700F1AA80380700F1B08020468A
:1009300000F08EFA02E0204600F08CFA0025F8055F
:1009400000F18480F80300F1AA80300707D51BF07E
:10095000100004D0206845F400751021C1607007B4
:1009600008D51BF0080005D020680821C16020468A
:1009700000F09CF9B00706D52068C068800702D057
:10098000204600F095F9700607D51AF0100004D043
:10099000206845F4806510210161B00608D51AF081
:1009A000080005D0206808210161204600F0F8F910
:1009B000F00606D520680069800702D0204600F0C6
:1009C000F1F9B00308D519F0100005D02068102106
:1009D0004160204600F00CFAF00308D519F0080039
:1009E00005D0206808214160204600F03DFA30041F
:1009F00040F18F805FEA497040F1888006F4807092
:100A000008EA102028435FEA8871014648BF41F098
:100A10000201B20558BF01465FEA48700D4648BF63
:100A200045F00405700558BF0D4630056ED518F029
:100A300070006BD010380009052862D8DFE800F09C
:100A4000035356595C5F45F008055AE020684FF49F
:100A50008071BA0581600AD4780512D4380519D49A
:100A6000204600F0F9F9F8037FF56FAF17E0204654
:100A700000F0F4F9F8037FF568AF10E04FF400657B
:100A80005DE705F50055F8037FF55FAF07E04FF42C
:100A9000805554E705F58045F8037FF556AF20688B
:100AA0004FF48031BA0381600AD478030FD438033D
:100AB00013D4204600F0D4F930073FF548AF4EE795
:100AC000204600F0CFF930073FF541AF47E705F585
:100AD000004530073FF53BAF41E705F5803530076E
:100AE0003FF535AF3BE745F010050AE045F020053E
:100AF00007E045F0400504E045F0800501E045F4DD
:100B000080752068816921F070018161206804216D
:100B100041604DB1606A40EA05012046616201B062
:100B2000BDE8F04FFFF752BE01B0BDE8F08F000006
:100B3000002804BF01207047B0B5044690F820009B
:100B400010B9204600F06EF82068016841F00101FC
:100B5000016000F0FDFA054620684168C90705D12B
:100B600000F0F6FA401B0B28F6D310E0016821F0E4
:100B70000201016000F0ECFA054600BF2068416800
:100B800089070DD500F0E4FA401B0B28F6D3606A04
:100B9000052140F400306062012084F82010B0BDCF
:100BA000217E0268012922F0800208BF80320260A3
:100BB000617E0268012922F0400208BF40320260D3
:100BC000A17E0268012922F0200208BF20320260C3
:100BD000E17E0268012922F0100218BF1032026083
:100BE000217F0268012922F0080208BF0832026052
:100BF000617F0268012922F0040208BF043202600A
:100C0000D4E901C2D4E9033561691A432A43114387
:100C1000ACF101021143C16100200121606284F83E
:100C20002010B0BD016846F20040C4F200008142CD
:100C300018BF704780B586B0002143F6300201919D
:100C4000C4F20202136900F5D43043F0007313615B
:100C5000136903F000730193019B0191136843F042
:100C6000080313601268022302F008020192019A3D
:100C7000CDE9023109210322059101A901920492D3
:100C800000F090F914200221002200F019FB14203A
:100C900000F004FB15200221002200F011FB1520BA
:100CA00000F0FCFA06B0BDE88040704770470000D5
:100CB00080B58AB003AA01AB0021FFF789FD039834
:100CC000F13803284CD8BDF805109DF8082009BA62
:100CD0004FEA114C9DF8073000EE10CA1109B8EE2A
:100CE000400AB3EE091A9FED2B2A41EA03119DF841
:100CF000093020EE010A80EE020A01EE101A9FED83
:100D0000262A62F30B23B8EE411A9FED243A21EE16
:100D1000021A02EE103A81EE031AB8EE422AB2EE3F
:100D2000044A22EE042A82EE032A0EA1BAEE093A00
:100D300051F8201030EE030A0EA212A352F8202020
:100D400053F8200081ED000ABBEE0E0A31EE000AD6
:100D500082ED000AB9EE040A32EE000A80ED000AC4
:100D60000AB080BDBC000020B0000020D8000020E8
:100D7000CC000020C0000020B4000020DC000020D7
:100D8000D0000020C4000020B8000020E0000020B7
:100D9000D400002000FF7F470000704200F07F4534
:100DA0007047000080B58AB003AA01AB0121FFF7AC
:100DB0000FFD039840F20A21884217D1BDF80400C4
:100DC00040F2F40100BA000CC2F200010880BDF844
:100DD000060000BA000C4880BDF8080000BA000CFC
:100DE0008880BDF80A0000BA000CC8800AB080BD37
:100DF00070470000B0B5044690F8200001281DD1CE
:100E0000022084F820002068016821F001010160BF
:100E100000F09EF9054600BF20684068C00713D067
:100E200000F096F9401B0B28F6D3606A40F40030BE
:100E30006062052084F820000120B0BD606A40F4A3
:100E4000002060620120B0BD00206062B0BD0000E3
:100E500070470000704700007047000070470000B6
:100E600070470000704700007047000070B5866D45
:100E7000044600F06DF994F83510022925D1054695
:100E80002068216C026822F016020260426922F09A
:100E90008002426109B9A16C19B1016821F0080111
:100EA0000160016821F00101016000BF2068006855
:100EB000C0070ED000F04CF9401B0628F6D32020C6
:100EC0006065032084F835000CE080206065012017
:100ED00008E0E06D3F2101FA00F0B060012084F8E5
:100EE00035000020002184F8341070BD90F83510D2
:100EF000022909D1052180F835100068016821F028
:100F00000101016000207047802141650120704788
:100F1000B0B5044600F01CF9054640F28800C2F264
:100F200000000078611C18BF044400BF00F010F9F5
:100F3000401BA042FAD3B0BD042818BF704710B5BB
:100F400040F2E804C2F2000494ED020A9FED0C1A8C
:100F500030EE010A84ED020AFFF726FA94ED020A48
:100F60009FED081AB4EE410AF1EE10FA05DD9FED8F
:100F7000061A30EE010A84ED020ABDE810407047FF
:100F8000000070420000B4430000B4C343F61441B3
:100F9000C4F201010A68024214BF08607047FFF7FB
:100FA000CBBF00002DE9F04F82B000F13E4707F1C2
:100FB000FF77860546EA972742F20046C4F202060A
:100FC0000A2243F6004EB04208BF0922C4F2010EC5
:100FD000092F38BF3A46002600274FF0000800923C
:100FE00009E000BF08F101080237B8F1100F06F15F
:100FF000040600F0A3800D68012202FA08F415EA45
:101000000409EFD0D1F804B003220BF0030CACF1CB
:101010000105BA40012D6FEA020A0FD88268CD6837
:1010200002EA0A02BD402A4382604268A243CBF32F
:10103000001404FA08F42243426005E0BCF1030FF7
:1010400002D14FF0030C1EE0C2688C6802EA0A026B
:10105000BC402243BCF1020FC26014D16FF0030206
:1010600002EA58020244D2F820C006F01C040F2302
:101070000D69A3402CEA0303A5402B431362D1F86A
:1010800004B00BF0030C02680CFA07F302EA0A0240
:101090001A431BF4403F0260A4D0002243F64403ED
:1010A0000192C4F202031A684FF6084C42F48042DF
:1010B0001A601A68CFF6FF7C02F480420192019A0E
:1010C00028F00302724452F80C3006F00C050F248D
:1010D000AC40A343009C04FA05F52B4342F80C30C6
:1010E000DEF808204B6842EA090543F60C4CDC02A6
:1010F00058BF22EA0905CEF80850C4F2010CDCF80A
:1011000000209C0242EA090558BF22EA0905CCF8F2
:101110000050DEF804209C0342EA090558BF22EA89
:101120000905CEF80450DEF80020DB0342EA090589
:1011300058BF22EA0905CEF8005053E702B0BDE8D7
:10114000F08F0000002A08BF090481617047000089
:1011500044F65800C2F200000068704740F2880070
:1011600044F65801C2F20000C2F2000100780A6899
:10117000104408607047000080B543F60040C4F298
:101180000200016841F400710160016841F480616E
:101190000160016841F480710160032000F0BCF837
:1011A000002000F005F800F057F8002080BD000096
:1011B000B0B586B0002543F644010195C4F20201A2
:1011C0000A68044642F002020A60096801A801F0B8
:1011D000020101910199694600F09CF900F0CEF9F5
:1011E0004DF683614000C4F21B31A0FB01014FF0BA
:1011F000FF3000EB914140F2241040F20042C2F275
:101200000000C4F2010240F2E733C0E90021C0E966
:1012100002530561856100F0B7FB0546C8B940F28D
:101220002410C2F2000000F0DFFB054688B92C2034
:1012300000F034F80F2C0BD82C202146002200257A
:1012400000F03EF840F28C00C2F20000046000E0C2
:101250000125284606B0B0BD82B0002043F640010B
:101260000190C4F202014A6842F480424A604A682E
:1012700002F480420192019A00900868002240F036
:101280008050086008680F2100F08050009000989E
:101290006FF0010002B000F013B80000002848BF52
:1012A000704700F01F01012202FA01F11C2202EA3C
:1012B000D0004EF20012CEF20002815070470000C2
:1012C00010B54EF60C5CCEF2000CDCF80030C3F327
:1012D000022E8EF00704042C28BF0424BEF1030361
:1012E0004FF0FF3E0EFA04F438BF0023A1439940AB
:1012F0000EFA03F39A43114300F00F0200F160432A
:101300000901043A03F564436244002848BF02F12E
:101310000C03197010BD00004EF60C51CEF2000106
:101320000A684FF6FF031A4060F30A2242F0806019
:1013300040F0FD700860704770B582B000200190E9
:1013400043F64000C4F202000168402641F080519B
:1013500001600068C4F20E2600F0805001900198F0
:1013600047F204050120C4F200053060FFF7F0FEEB
:10137000044600BF2868C00306D4FFF7E9FE001B3F
:10138000B0F57A7FF6D90EE001207060FFF7E0FE3D
:10139000044600BF2868800308D4FFF7D9FE001B6D
:1013A000B0F57A7FF6D9032002B070BD002002B0FC
:1013B00070BD0000002804BF012070472DE9F041F6
:1013C00043F60808C4F202080446D8F8F8030D46AC
:1013D00000F00F00884207D288F8F853D8F8F803D5
:1013E00000F00F00A84276D12068810717D5410789
:1013F00005D5D8F8001041F4E051C8F800100107F5
:1014000005D5D8F8001041F46041C8F80010D8F8AC
:101410000010A26821F0F0011143C8F80010C007C5
:101420003FD1D8F8F80300F00F00A84207D988F898
:10143000F853D8F8F80300F00F00A8424BD1206809
:10144000410707D5D8F80010E26821F4E0511143B4
:10145000C8F80010000708D5D8F80000216920F46A
:10146000604040EAC100C8F8000000F09BF8D8F8DE
:10147000001043F61272C1F30311C0F60002515C72
:1014800040F2040220FA01F140F28C00C2F20000A6
:101490000068C2F200021160FFF78AFE0020BDE87A
:1014A000F0816068811E022907D258F8081C890162
:1014B0005CBF0120BDE8F08110E0012807D158F899
:1014C000081C89035CBF0120BDE8F08106E058F8E4
:1014D000081C890702D40120BDE8F081D8F800106B
:1014E00021F003010843C8F80000FFF731FE06466B
:1014F00041F28837D8F80000616800F00C00B0EBCA
:10150000810F8ED0FFF724FE801BB842F2D9032052
:10151000BDE8F0810F22026043F60802C4F2020225
:10152000136803F003034360136803F0F003836060
:10153000136803F4E053C360D2F800C04FF4E053E3
:1015400003EADC030361D2F8F80300F00F0008603F
:101550007047000040F2040043F60801C2F20000A8
:10156000C4F202010068096843F62272C1F38221C5
:10157000C0F60002515CC8407047000040F2040011
:1015800043F60801C2F20000C4F2020100680968D3
:1015900043F62272C1F34231C0F60002515CC840EA
:1015A0007047000010B543F60404C4F202046068FA
:1015B00000F00C0008280AD0042819BF42F20040AD
:1015C000C0F2F40041F60030C0F2B70010BD206850
:1015D00021682368490241F60031C0F2B70100F0EA
:1015E0003F02C3F388105CBF42F20041C0F2F40135
:1015F000A1FB00010023FEF7F5FD21680222C1F3E3
:10160000014102EB4101B0FBF1F010BD002804BF25
:10161000012070472DE9F04182B00446007843F67E
:101620000006C007C4F202060BD0B06800F00C0040
:10163000042878D13068800303D56068002800F062
:101640005181207880071AD5B06810F00C0F08D0AF
:10165000B06800F00C00082840F07F8070684002FD
:101660007BD43068800703D5E068012840F03A81D8
:101670003068216920F0F80040EAC100306020782D
:10168000000713D42078400727D4A569002D00F067
:101690002581B06800F00C00082840F09180012DF1
:1016A00040F0F980012002B0BDE8F08160690028B7
:1016B00040F20000C4F2472072D00121C0F8801E21
:1016C000FFF746FD054600BF706F8007DAD4FFF7CD
:1016D0003FFD401B0228F7D9D9E0306C5FEAC00813
:1016E0000AD400200190306C40F080503064306C9F
:1016F00000F080500190019847F20007C4F2000703
:101700003868C0053ED4386840F480703860FFF710
:101710001FFD05463868C00534D4FFF719FD401B8E
:101720000228F7D9B3E0B06800F00C00082803D114
:10173000706840023FF57EAF6068B0F5803F07D02B
:10174000B0F5A02F40F08D80306840F480203060EC
:10175000306840F4803030608DE0E068002852D07E
:101760000020C4F2472001210160FFF7F1FC05468B
:10177000306880073FF57CAFFFF7EAFC401B02288A
:10178000F6D984E0A068012805D0052850D1306F33
:1017900040F004003067306F40F00100306751E0E6
:1017A0000021C0F8801EFFF7D3FC0546706F80074C
:1017B0007FF568AFFFF7CCFC401B0228F6D966E046
:1017C0000027C4F2472700203866FFF7C1FC022D2E
:1017D00005460DD13068800140F18880FFF7B8FCE4
:1017E000401B02284FF00300F4D902B0BDE8F0819D
:1017F0003068800172D5FFF7ABFC401B02284FF028
:101800000300F5D9F1E70020C4F247200021016070
:10181000FFF79EFC054600BF306880077FF52FAFBD
:10182000FFF796FC401B02284FF00300F4D9DCE7D9
:10183000316F002821F001013167316F21F004017F
:10184000316774D0FFF784FC054641F2883700BF4A
:10185000306F80077BD4FFF77BFC401BB842F7D981
:1018600015E03168002821F480313160316821F4BD
:101870008021316074D0FFF76BFC0546306880032F
:101880003FF5DFAEFFF764FC401B6428F6D9032068
:1018900002B0BDE8F0817068E16900F480028A421C
:1018A00020D1216A00F03F028A421BD147F6C07165
:1018B000626A0140B1EB821F14D1A16A4FF6FF7337
:1018C000C903994300F44032A1F580318A4209D11D
:1018D000E16A00F07060B0EB016F03D1002002B04C
:1018E000BDE8F081012002B0BDE8F08104F11C05E3
:1018F0002FCD084340EA8210D9034FF6FF7291437F
:10190000A1F5803140EA0560084370600120386627
:10191000FFF71EFC044600BF30688001DED4FFF7ED
:1019200017FC001B02284FF00300F5D95DE7FFF715
:101930000FFC054641F28837306F800707D5FFF767
:1019400007FC401BB8424FF00300F5D94DE7B8F152
:10195000000F3FF59AAE306C20F08050306494E672
:10196000FFF7F6FB054600BF306880037FF569AEE0
:10197000FFF7EEFB401B64284FF00300F4D934E777
:101980007047000070470000002804BF0120704726
:1019900010B5044690F83D0028B9002084F83C00BA
:1019A000204600F01FF8022084F83D002068211D29
:1019B00000F00EFF012084F8460084F83E0084F811
:1019C0003F0084F8400084F8410084F8420084F825
:1019D000430084F8440084F8450084F83D0000206A
:1019E00010BD00007047000090F83D1001291CBF99
:1019F00001207047022180F83D10006841F2FF721B
:101A0000C168C4F20002904241F00101C1600DDCE6
:101A100040F2FF71C4F20001884215DCB0F1804F42
:101A200029D040F20041C4F2000122E040F2FF312F
:101A3000C4F20101884212DC41F60001C4F2000147
:101A4000884218D0002112E040F60001C4F20001E3
:101A5000884210D040F60041C4F2000109E044F28F
:101A60000001C4F20101884205D040F20041C4F2F5
:101A70000101884206D1816801F00701062904BFEF
:101A800000207047016841F00101016000207047AB
:101A90007047000070B504460068C5680669B10764
:101AA00016D515F0020113D06FF00201016101217A
:101AB00021778069800703D02046FFF7E9FF05E022
:101AC000204600F08DF8204600F08CF800202077AA
:101AD000700718D515F0040015D020686FF00401C8
:101AE000016102212177806910F4407F03D02046F4
:101AF000FFF7CEFF05E0204600F072F8204600F028
:101B000071F800202077300717D515F0080014D0A1
:101B100020686FF00801016104212177C069800706
:101B200003D02046FFF7B4FF05E0204600F058F848
:101B3000204600F057F800202077F00618D515F061
:101B4000100015D020686FF0100101610821217785
:101B5000C06910F4407F03D02046FFF799FF05E0ED
:101B6000204600F03DF8204600F03CF800202077A9
:101B7000F00718BF15F0010002D1300609D412E0B9
:101B800020686FF001010161204600F02DF8300659
:101B900009D515F0800006D020686FF08001016142
:101BA0002046FFF7EDFE700609D515F0400006D07F
:101BB00020686FF040010161204600F01FF8B00678
:101BC00058BF70BD15F0200008D021686FF02002CA
:101BD00020460A61BDE87040FFF7D4BE70BD00002A
:101BE0007047000070470000006840F20041C4F2F6
:101BF0000101884218BF7047FFF7B0BA7047000074
:101C00007047000070470000B0B582B0044600681D
:101C10000168C368426901F02F05202D03F02005FB
:101C200006D12DB1204602B0BDE8B04000F0B2BEF2
:101C30005FEA017C1EBF02F0010E03F4907212EB0A
:101C40000E0242D1226BCD0618D5012A16D113F00F
:101C5000100213D0002101910168019141680191A6
:101C60000199406940063AD4A08DE18DE28D002AA9
:101C700018BF884240F0F78102B0B0BD0A0640F1BB
:101C8000E38013F0800200F0DF8094F841102129F6
:101C9000F2D1A168B1F5805F03D12169002900F07C
:101CA0006782216A4A1C226209784160E18C01390D
:101CB0000A04E184E0D1C16821F08001C160C168FB
:101CC00041F04001C16002B0B0BDCA0718BF13F4B3
:101CD000807240F0D7804A0700F1DA80DFE0E06BE5
:101CE00001684A68A38D91B2002900F0C180994231
:101CF00080F0BE80E285C069B0F5807F00F09C80F6
:101D0000206850E8030F216820F4807041E8030246
:101D1000DAB1206850E8030F216820F4807041E8B0
:101D2000030292B1206850E8030F216820F480700C
:101D300041E803024AB1206850E8030F216820F40B
:101D4000807041E80302002ADAD1206850E8050FCC
:101D5000216820F0010041E80502DAB1206850E86E
:101D6000050F216820F0010041E8050292B12068CA
:101D700050E8050F216820F0010041E805024AB152
:101D8000206850E8050F216820F0010041E80502B5
:101D9000002ADAD1206850E8050F216820F04000C1
:101DA00041E80502DAB1206850E8050F216820F00B
:101DB000400041E8050292B1206850E8050F216813
:101DC00020F0400041E805024AB1206850E8050FC4
:101DD000216820F0400041E80502002ADAD12020E5
:101DE00084F8420000202063206850E8030F216837
:101DF00020F0100041E80302DAB1206850E8030F38
:101E0000216820F0100041E8030292B1206850E8F8
:101E1000030F216820F0100041E803024AB1206856
:101E200050E8030F216820F0100041E80302002A67
:101E3000DAD1E06BFFF71AF802206063A08DE18D24
:101E4000401A81B2204688E149067FF515AF13F0AC
:101E500040013FF411AFC16821F04001C160202171
:101E6000204684F8411002B0BDE8B04000F06ABAE4
:101E70008B427FF401AFC069B0F5807F7FF4FCAE88
:101E8000022268E1626C42F0010262644A0706D5F0
:101E9000BEF1000F03D0626C42F0020262648A0756
:101EA00006D5BEF1000F03D0626C42F004026264FA
:101EB000BCF1000F06D55EEA050203D0626C42F069
:101EC00008026264626C002A3FF4D6AE890604D52B
:101ED0001DB1204600F05EFD20684069616C00F095
:101EE000400001F00801401800F0B680206850E87A
:101EF000030F216820F4907041E80302BAB3206810
:101F000050E8030F216820F4907041E8030272B397
:101F1000206850E8030F216820F4907041E8030224
:101F20002AB3206850E8030F216820F4907041E83C
:101F30000302002ADAD11AE0206850E8050F216870
:101F400020F0010041E80502DAB1206850E8050FF1
:101F5000216820F0010041E8050292B1206850E8B4
:101F6000050F216820F0010041E805024AB1206810
:101F700050E8050F216820F0010041E80502002A21
:101F8000DAD1206B012824D1206850E8030F2168A2
:101F900020F0100041E80302DAB1206850E8030F96
:101FA000216820F0100041E8030292B1206850E857
:101FB000030F216820F0100041E803024AB12068B5
:101FC00050E8030F216820F0100041E80302002AC6
:101FD000DAD1202084F84200002020632068406984
:101FE000400640F1BF80206850E8050F216820F0CE
:101FF000400041E80502DAB1206850E8050F216889
:1020000020F0400041E8050292B1206850E8050F39
:10201000216820F0400041E805024AB1206850E8FC
:10202000050F216820F0400041E80502002ADAD1BE
:10203000E06B002800F0968042F68911C0F600019E
:102040000165FEF753FF00283FF416AEE06B016D0B
:1020500002B0BDE8B04008472046FFF7D3FD00209E
:10206000606402B0B0BD401A216851E8031F2268C5
:1020700021F4907142E80313BBB3216851E8031FB8
:10208000226821F4907142E8031373B3216851E888
:10209000031F226821F4907142E803132BB32168D7
:1020A00051E8031F226821F4907142E80313002BCA
:1020B000DAD11AE0216851E8051F226821F00101F8
:1020C00042E80513DBB1216851E8051F226821F0C1
:1020D000010142E8051393B1216851E8051F226808
:1020E00021F0010142E805134BB1216851E8051FB9
:1020F000226821F0010142E80513002BDAD12021EA
:1021000084F8421000212163216851E8031F2268EE
:1021100021F0100142E80313DBB1216851E8031FED
:10212000226821F0100142E8031393B1216851E8BD
:10213000031F226821F0100142E803134BB121680C
:1021400051E8031F226821F0100142E80313002B1D
:10215000DAD1022281B22046626302B0BDE8B0400B
:10216000FFF74EBD204602B0BDE8B040FFF74ABDC4
:10217000216A31F8022B6FF35F224260216295E5FC
:10218000002804BF0120704710B5044690F84100B4
:1021900028B9002084F84000204600F021F82420CF
:1021A00084F841002068C16821F40051C1602046D4
:1021B00000F06EFC2068016921F4904101614169E1
:1021C00021F02A014161C16841F40051C160002041
:1021D0002021606484F8411084F84210606310BDCF
:1021E000016841F20040C4F20100814218BF70470B
:1021F00080B586B0002143F630020191C4F202029C
:10220000536900F5823043F020035361536903F0B2
:1022100020030193019B0191136843F04003136075
:10222000126802F040020192019A4FF48442019236
:102230000222CDE90221032104910821059101A97F
:10224000FEF7B0FE472004210022FFF739F84720AF
:10225000FFF724F806B0BDE88040704770470000E3
:102260002DE9F04381B0044690F8410020281CD1AC
:10227000894600294FF0010061D01646002A5ED041
:102280000020606421201D4684F84100FEF760FFB5
:10229000A684E684A1680646B1F5805F01D1206975
:1022A00038B1C8464FF0000905E0022001B0BDE892
:1022B000F0834FF00008E18C206829B36F1C0BE01D
:1022C000B8F1000F19D018F8011B4160E18C0139F9
:1022D000E184E18CC1B100BF01680906F0D4002F90
:1022E000FAD0FEF735FF01464FF0030025B3891BF6
:1022F000A94221D82068C168EEE739F8021B4FF0E7
:1023000000086FF35F21E0E70168490613D46F1CF2
:1023100003E000BF016849060DD4002FFAD0FEF794
:1023200017FF01464FF0030035B1891BA94203D8BE
:102330002068C168EEE70020202184F8411001B038
:10234000BDE8F08370470000FEE7000080B540F272
:10235000FC0046F20041C2F20000C4F2000100237A
:102360004FF4003C092280E80E00C0E9033CC0E9BC
:1023700005338383FEF7DCFB002808BF80BDBDE882
:102380008040FEF7D5B80000F0B587B0002643F6D0
:102390003000CDE905660196C4F20200016841F201
:1023A000004441F0400101600168C4F2020401F000
:1023B00040010191019901960168002241F001015B
:1023C000016001684FF4804701F00101019101991A
:1023D0000196016841F008010160016801F00801FF
:1023E000019101990196016841F080010160016845
:1023F00001F08001019101990196016841F002010B
:102400000160016801F002010191019901960168E2
:1024100041F02001016000684FF4804100F020008D
:10242000019001982046FEF78DFE042002904FF4A3
:10243000881002ADCDE90306A4F580502946FEF7C9
:10244000B1FD0120CDE903062046294602970596F5
:10245000FEF7A8FD082001210022FEF731FF082029
:10246000FEF71CFF07B0F0BD80B540F26C1041F2E2
:102470000041C2F20000C4F2010100234FF00C0C35
:102480004FF4E13280E80E00C0E90333C0E905C330
:10249000C361FFF775FE002808BF80BDBDE880401E
:1024A000FEF746B8FEE70000FEE70000002875D002
:1024B00080ED090A90ED0D1A30EE600AB0EEC04AC8
:1024C00090ED063A90ED072AB4EE414AF1EE10FA8B
:1024D000C0ED040A80ED082A80ED073A80ED060A77
:1024E00009DA9FED4D2A0021B0EE423AB0EE420AE1
:1024F000C0E90611016290F83C1051B930EE431A60
:102500009FED464AB0EEC11AB4EE441AF1EE10FA4D
:1025100003DD0021416180F83C1090ED0A4A90ED06
:102520000C1AB0EEC46A90ED055AB4EE416AF1EEB1
:1025300010FABCBF30EE055A80ED055A90ED0B6ADB
:10254000B4EE465AF1EE10FA06DCB1EE466AB4EE8D
:10255000465AF1EE10FA03DAB0EE465A80ED056AFB
:10256000017801291DD190ED027A30EE435A90EDA9
:10257000016A33EE033AD0ED030A20EE077A30EE1B
:10258000430A26EE055A30EE020A35EE075A20EECF
:10259000800A30EE050A34EE000A28E09FED1E0A9C
:1025A000704740F2C80190ED0E7AC2F20001D1ED01
:1025B000000AF7EE001A30EE432A90ED013A90ED52
:1025C000024A71EEC71A90ED036A22EE212A27EE25
:1025D000207A37EE022A24EE054A23EE000A81ED26
:1025E000002A30EE040A26EE022A32EE000AB4EE89
:1025F000410AF1EE10FA80ED0A0A07DCB1EE411A49
:10260000B4EE410AF1EE10FAA8BF7047B0EE410AED
:1026100080ED0A1A704700BF000000000000FA4376
:1026200048F200024CF6CD4301700021C4F23B5247
:10263000C3F64C73C0E90511C0E90711C0E90911DF
:10264000C0E90C21836380F83C1070470000000053
:10265000EFF30980BFF36F8F154B1A681EF0100F50
:1026600008BF20ED108A20E9F04F10602DE9090025
:102670004FF0500080F31188BFF34F8FBFF36F8F7F
:1026800000F08CFE4FF0000080F31188BDE80900D7
:1026900019680868B0E8F04F1EF0100F08BFB0ECE2
:1026A000108A80F30988BFF36F8F704700BF00BFA7
:1026B000B401002000000000000000000000000045
:1026C000074B19680868B0E8F04F80F30988BFF33A
:1026D0006F8F4FF0000080F31188704700BF00BF7C
:1026E000B401002080B501F0BFF8012808BF80BD0B
:1026F000BDE8804000F0C2BE80B592B0002043F635
:102700004001CDE90A00CDE908000590CDE90300BC
:10271000CDE901000090C4F202010A6842F0805243
:102720000A60096801F0805100910099009047F219
:102730000000C4F20000016841F4404101600068FB
:102740004FF4800100F44040009000980120069072
:102750004FF480300D910621079002200E91B42194
:102760000C90CDE90F100420119006A8FEF74EFF43
:1027700008B172B6FEE7FEF7DFFD10B172B600BF1A
:10278000FEE70F20019002200290002003904FF4FA
:10279000A05004904FF48050059001A80521FEF749
:1027A00009FE10B172B600BFFEE712B080BD000096
:1027B0004EF68850CEF20000016841F470010160CD
:1027C0007047000040F22410C2F20000FFF762B927
:1027D000B0B540F6FF3E0568C4F2000E40F2004C72
:1027E0007045C4F2010C0FDCB0F1804F19D040F2FB
:1027F0000043C4F20003984213D040F60003C4F231
:10280000000398420DD011E040F60043C4F20003EB
:10281000984206D0604504D00023C4F201039842D8
:1028200004D14B6825F0700243EA020541F6FF73BC
:10283000C4F2000398420DDC70451FDCB0F1804FFC
:1028400041D040F20043C4F2000398423BD040F62E
:10285000000321E043F6FF73C4F20103984220DC39
:1028600042F20003C4F2000398422CD00023C4F2C9
:102870000103984227D0604525D029E040F6004367
:10288000C4F2000398421ED041F60003C4F20003D4
:10289000984218D041F60043C4F20003984212D087
:1028A00016E044F20003C4F2010398420BD044F650
:1028B0000003C4F20103984205D044F20043C4F27D
:1028C0000103984204D1CB6825F4407243EA020523
:1028D0000A688C684B69C46240F480648262644513
:1028E00004BF09690163026825F0800142F0040217
:1028F00019430260012242610160B0BD40F29808B4
:1029000040F29C09C2F20008C2F200090CA415A50D
:10291000D8F8000000F01AFBD9F800100646084667
:1029200000F014FB07462046314601F031F92846F5
:10293000394601F02DF9322000F00CFCE8E700BF29
:10294000444D34333130205461736B2048696768DB
:10295000205761746572204D61726B3A20256C7549
:102960000D0A0000474D36303230205461736B2021
:1029700048696768205761746572204D61726B3ACF
:1029800020256C750D0A0000806B0021C185FFF7C2
:1029900039B9000081B090F84210222920D1836813
:1029A0000246B3F5805F08D152F8281F52F8183C50
:1029B000002B61D003685B6809E052F8281F13B947
:1029C0000369002BF6D003685B6803F07F030B708C
:1029D000116801311160C18D01390A04C18501D02E
:1029E00001B070470168CA6822F02002CA60CA6854
:1029F00022F48072CA604A6922F001024A612021F1
:102A000080F8421000214163026B012A3CD101632E
:102A1000016851E8031F026821F0100142E8031326
:102A2000DBB1016851E8031F026821F0100142E8A0
:102A3000031393B1016851E8031F026821F01001EC
:102A400042E803134BB1016851E8031F026821F00B
:102A5000100142E80313002BDAD101680A68D2069C
:102A600006D5002200920A680092496800910099F8
:102A7000818D01B0FFF7C4B8026852686FF35F221E
:102A800021F8022B8162A6E701B0FFF7E7BB000047
:102A900010B504460068D4E902C22369016921F433
:102AA000405111430161626943EA0C01E36911433A
:102AB000C268194349F20C639A431143C1604169EA
:102AC000A26921F4407141F20043114340F4806255
:102AD000C4F201039A42416102D1FEF74FFD01E0C9
:102AE000FEF738FDE16963681922B1F5004FA0FBDC
:102AF000020120D15A00DB0FFDF774FB48F21F5191
:102B0000C5F2EB11A0FB01235A094FF69C73C0F6E6
:102B1000FF7303F1805302FB0300322303EBC00079
:102B2000A0FB01014FF4F87000EA111000EB021055
:102B3000C1F342111CE09A009B0FFDF753FB48F2D2
:102B40001F51C5F2EB11A0FB01235A094FF69C73EC
:102B5000C0F6FF7302FB0300322303EB0010A0FB5F
:102B60000101F02000EA511000EB0210C1F3431103
:102B700008442168886010BD40F26C10C2F2000069
:102B8000FFF742B8FEE7000080B582B0019040F246
:102B90006C10C2F2000001A901224FF0FF33FFF7D1
:102BA0005FFB019802B080BD80B586B040F2FE2286
:102BB000009200220392CDE901220822049240F201
:102BC000504281B2C2F20002090A5070D0705071B6
:102BD000D07140F2FC001170917011719171C2F2CC
:102BE000000069460223FDF735FD06B080BD0000F8
:102BF000FEF7C2FAFFF780FDFFF7C6FBFFF7A6FB63
:102C0000FFF732FCFDF78CFBFDF716FCFDF7B2FC7D
:102C1000FDF792FCFEE7000044F6600540F2C41A9E
:102C20004EF6045844F6EC0744F65C06C2F2000582
:102C3000C2F2000ACEF200084FF08059C2F200073B
:102C4000C2F2000615E000BF00F0FEF9F868C468A3
:102C5000201D00F069F930680138306028680138BB
:102C6000286000F001FA206B00F00CFA204600F01A
:102C700009FA28680028E7D1DAF800000228F8D31A
:102C8000C8F80090BFF34F8FBFF36F8FF1E70000DC
:102C900008480068006880F308884FF0000080F35F
:102CA000148862B661B6BFF34F8FBFF36F8F00DF3A
:102CB00000BF000008ED00E081B0002000904FF060
:102CC000500080F31188BFF36F8FBFF34F8F00BFA9
:102CD000009830B9009820B9009810B900980028E1
:102CE000F6D001B07047000070B500F10805092D5D
:102CF00001D200250AE010F0070107D009398D4202
:102D00009ABF20F0070000F11005002500F03EFBFF
:102D100040F2BC1CC2F2000CDCF8000030B144F6FA
:102D20009800C2F20000D0F800E02BE040F25840DA
:102D3000C2F20000C11D420700F5884218BF21F011
:102D4000070044F6D001C2F200010023C1E90003EC
:102D500022F00701A1F10802CCF8002041E902337A
:102D6000DCF80010A2EB000EC0E9001E44F6A00043
:102D7000C2F20000C0F800E044F69800C2F2000081
:102D8000C0F800E0012D4FF0000462DB754560D80B
:102D900044F6D002C2F2000210684368AB4223D26C
:102DA000016809B304464B68AB4213D20E688EB17A
:102DB0007368AB4211D232687AB15368AB420FD21A
:102DC00014686CB16368AB420DD2216820460029BB
:102DD000E9D109E00846224606E030460A4603E00B
:102DE0001046324600E02046DCF80010884210D041
:102DF000116806685B1B102B16600CD944196360C0
:102E000044F69803C2F20003D3F800E04651146080
:102E100002E000241DE0456844F6A002C2F2000270
:102E2000136801F10804AEEB050144F69806C2F2FE
:102E30000006994244F6AC03316038BF1160C2F21B
:102E400000031E6845F000410022C0E90021701C0B
:102E5000186000F0E7FD204670BD0000034642F612
:102E6000B94021F00101C0F600004FF0807C03E979
:102E700003106FF00201A3F1440043E90912704707
:102E800070B582B000F0E0F840F29C00C2F20000A1
:102E90000121CDE9001040F29950C0F6000015A1C3
:102EA00080220023002600F001FB40F2980440F24B
:102EB0007930C2F200040225C0F6000011A1802280
:102EC0000023CDE9005400F0F1FA42F6FD0004259C
:102ED000C0F6000010A180220023CDE9005600F0CA
:102EE000E5FA002000F092F902B0BDE8704000F071
:102EF000BBB800BF47696D62616C5370656564540F
:102F000061736B00444D34333130436F6E74726FB4
:102F10006C5461736B000000547261636B53746195
:102F2000636B5461736B0000D0E9013201699A60F0
:102F3000D1F804C082688445536008BF4A600B68BA
:102F400000220261581E08607047000020B940F25C
:102F5000B410C2F200000068016B0878A5281CBFFD
:102F600000207047022000BF0A1812F8013CA52B70
:102F70000CD10B5CA52B0AD15378A52B09D19278E3
:102F80000430A52AF0D00238800870470138800844
:102F900070470130800870474FF0FF31024642F819
:102FA000081F0021C0E90322C0E900127047000099
:102FB000002101617047000010B5D1F800E01EF15A
:102FC000010213D000F1080462681368734511D838
:102FD00053681C68744510D85A68146874450ED834
:102FE00054682368A4467345EED90AE00269D2F812
:102FF00004C006E09446224603E09C4601E0944665
:103000001A46C1F804C0CCF808108A605160026802
:103010000861511C016010BDD0E900C308619A68C5
:103020004B608A609A68996051600CF101010160FF
:1030300070470000DFF80C00016841F47001016086
:103040007047000088ED00E04FF0500080F31188D9
:10305000BFF36F8FBFF34F8F40F29000C2F20000BA
:10306000016801310160704740F29000C2F2000037
:1030700001680139016018BF7047002080F3118892
:1030800070470000B0B528B1044650F8040CB0F108
:10309000FF3F00DDB0BDA4F108052968002918BF75
:1030A000B0BD20F0004044F8040C00F06FF944F685
:1030B0009800C2F2000054F8041C02680A4402603E
:1030C00044F6D000C2F200000368AB420AD218688E
:1030D000A8420AD20368AB4204D218681A46A84232
:1030E000F2D303E00246184600E01A465368D418AB
:1030F000AC4202D11944154651606B1883420AD183
:1031000040F2BC13C2F200031B68984203D0D0E91E
:10311000000319446960286044F6B000AA4218BF51
:103120001560C2F20000016801310160BDE8B040E5
:1031300000F078BC4EF21000CEF2000000210160D9
:1031400081604BF61F71C0F20201416007210160EE
:10315000704700002DE9F041002849D0044644F6AC
:103160006400C2F20000016840F2B4150131016050
:1031700044F60010C2F20000076840F2B810C2F234
:103180000000D0F8008040F2C010C2F20000C2F28D
:103190000005066828680430FFF7C6FE60B9286895
:1031A00044F66C02C06AC2F200020121136801FAFF
:1031B00000F023EA000010602868E41944602868E1
:1031C00000F1040103D33046FFF7F6FE0AE0404663
:1031D000FFF7F2FE44F6A400C2F2000001688C4240
:1031E00038BF046000F01EFC002818BFBDE8F08165
:1031F0004EF60450CEF200004FF080510160BFF354
:103200004F8FBFF36F8FBDE8F0810000F0B581B044
:103210000446FFF719FF40F2B416002CC2F2000674
:1032200008BF3468251D2846FFF77EFEA0B9E06A76
:1032300040F2C41200EB8001C2F2000252F82110E9
:1032400051B944F66C02C2F200020121136801FA7E
:1032500000F023EA00001060A06A18B104F1180021
:10326000FFF762FE44F66800C2F20000016844F60F
:10327000CC0701310160C2F200073068396891B1B2
:10328000844210D144F6EC00C2F200002946FFF758
:10329000C3FE44F66000C2F2000001680131016023
:1032A000FFF7E2FE20E044F65C00C2F20000016895
:1032B0000139016040F2B810C2F2000001680968EB
:1032C00019B10068C068006801E04FF0FF3044F6B3
:1032D000A401C2F200010860FFF7C6FE206BFFF7F1
:1032E000D1FE2046FFF7CEFE386810B13068844228
:1032F00001D001B0F0BD4EF60450CEF200004FF008
:1033000080510160BFF34F8FBFF36F8F01B0F0BDED
:1033100010B586B044F24940C4F24C50029044F6D5
:103320009C0C42F619400024C2F2000CC0F60000CA
:1033300002A9802200238DF80C40CDE9004C00F05A
:10334000B5F801281BD14FF0500080F31188BFF36E
:103350006F8FBFF34F8F44F6A400C2F200004FF00E
:10336000FF31016044F6CC00C2F20000012101608F
:1033700044F60010C2F20000046000F047F843F683
:103380002C70C0F60000006806B010BD44F6640062
:10339000C2F20000016801310160704744F6640028
:1033A000C2F20000006830B144F60410C2F200001E
:1033B00001210160704744F60410C2F200000021B0
:1033C000016044F66C00C2F200000068B0FA80F0C0
:1033D000C0B2C0F11F0040F2C41100EB8000C2F285
:1033E000000101EB8002114651F8040F40680B1DEB
:1033F0009842086001D1D0680860C06840F2B411FA
:10340000C2F200010860086870470000B0B582B0E1
:103410004EF62054CEF20004206840F47000206084
:10342000206840F070402060FFF784FE40F290007A
:10343000C2F2000000250560FFF7FCFDD4F814027D
:1034400040F04040C4F81402FFF722FCFFF7A6FF4B
:1034500001954FF0500080F31188BFF36F8FBFF3D9
:103460004F8F00BF019830B9019820B9019810B969
:1034700001980028F6D0002002B0B0BD80B54FF012
:10348000500080F31188BFF36F8FBFF34F8F00F0B0
:10349000FFF930B14EF60450CEF200004FF08051EB
:1034A0000160002080F3118880BD00002DE9F04FFD
:1034B00081B0970082463846994616468B46FFF7FC
:1034C00013FC002800F0D88005465420FFF70CFCC0
:1034D000002800F0D480DDF8288054210446FCF751
:1034E000B9FE28463946A5222563FCF7ACFE206BC1
:1034F000BBF1000F00EB8600A0F1040020F00706EE
:1035000076D09BF8000084F834009BF80000002877
:103510006BD09BF8010084F835009BF8010000286F
:1035200063D09BF8020084F836009BF80200002864
:103530005BD09BF8030084F837009BF80300002859
:1035400053D09BF8040084F838009BF8040000284E
:103550004BD09BF8050084F839009BF80500002843
:1035600043D09BF8060084F83A009BF80600E0B3CD
:103570009BF8070084F83B009BF80700A8B39BF872
:10358000080084F83C009BF8080070B39BF8090021
:1035900084F83D009BF8090038B39BF80A0084F8D2
:1035A0003E009BF80A0000B39BF80B0084F83F0034
:1035B0009BF80B00C8B19BF80C0084F840009BF806
:1035C0000C0090B19BF80D0084F841009BF80D00B1
:1035D00058B19BF80E0084F842009BF80E000028BA
:1035E0001CBF9BF80F0084F84300002084F84300C0
:1035F000251D2846B8F11F0F28BF4FF01F08C4F83B
:103600002C80FFF7D5FC04F11800FFF7D1FCC8F1BE
:103610002000A061304651464A4624616462FFF7AB
:103620001DFC0B992060002918BF0C60FFF70CFDF2
:1036300044F65C00C2F20000016840F2B4190131A6
:103640000160C2F20009D9F8001044F6CC0A40F239
:10365000C416C2F2000AC2F20006B1B1DAF80000E4
:10366000002840F0C280D9F80000E16AC06A8842B0
:1036700098BFC9F80040B8E04FF0FF37F0E02846A7
:10368000FFF700FD4FF0FF37EAE0C9F8004000689F
:10369000012840F0AA803046FFF77EFC06F11400B6
:1036A000FFF77AFC06F12800FFF776FC06F13C00F4
:1036B000FFF772FC06F15000FFF76EFC06F16400A4
:1036C000FFF76AFC06F17800FFF766FC06F18C0054
:1036D000FFF762FC06F1A000FFF75EFC06F1B40004
:1036E000FFF75AFC06F1C800FFF756FC06F1DC00B4
:1036F000FFF752FC06F1F000FFF74EFC06F5827072
:10370000FFF74AFC06F58C70FFF746FC06F596704D
:10371000FFF742FC06F5A070FFF73EFC06F5AA7025
:10372000FFF73AFC06F5B470FFF736FC06F5BE70FD
:10373000FFF732FC06F5C870FFF72EFC06F5D270D5
:10374000FFF72AFC06F5DC70FFF726FC06F5E670AD
:10375000FFF722FC06F5F070FFF71EFC06F5FA7085
:10376000FFF71AFC06F50270FFF716FC06F5077066
:10377000FFF712FC06F50C70FFF70EFC06F5117052
:10378000FFF70AFC06F51670FFF706FC06F51B703E
:10379000FFF702FC44F67008C2F200084046FFF74B
:1037A000FBFB44F68407C2F200073846FFF7F4FB40
:1037B00044F6B800C2F20000FFF7EEFB44F6EC005E
:1037C000C2F20000FFF7E8FB44F6D800C2F20000A6
:1037D000FFF7E2FB40F2B810C2F20000C0F8008030
:1037E00040F2C010C2F20000076044F66800C2F266
:1037F00000000168012701310160616444F66C0139
:10380000E06AC2F200010A6807FA00F31A4300EB0B
:1038100080000A6006EB80014A6861619368A260DB
:10382000E3609368956056F820205D60511C46F86F
:103830002010FFF719FCDAF8000088B1D9F8000071
:10384000E16AC06A88420AD24EF60450CEF2000005
:103850004FF080510160BFF34F8FBFF36F8F01278F
:10386000384601B0BDE8F08F44F6CC00C2F200004B
:103870000068002804BF0120704744F66400C2F2CB
:1038800000000068B0FA80F0400940007047000076
:1038900044F66400C2F20000006840B144F6B4008F
:1038A000C2F20000016801310160002070472DE97B
:1038B000F04F44F60010C2F20000016844F6A40282
:1038C00011F10108C2F20002C0F800801CD340F2DE
:1038D000B81040F2C013C2F20000C2F20003016847
:1038E0001F680760196044F6A801C2F200010B6866
:1038F00001330B600168096819B10068C06800688D
:1039000001E04FF0FF301060106840F2C41E8045A7
:10391000C2F2000E01D200206CE040F2B81AC2F2EE
:10392000000ADAF800000068002858D044F66C0B52
:103930004FF00109C2F2000B002025E0F96ADBF824
:10394000002009FA01F31A43CBF8002001EB8102B1
:103950000EEB82035E687B61B568BE60FD60B56892
:10396000B4605EF822606C60731C4EF8223040F246
:10397000B412C2F200021268D26ADAF80030914240
:1039800088BF0120196871B3DAF80010C968CF68E0
:103990003C4654F8045FA84527D3D7E90265796906
:1039A000B560D1F804C0FD68A4456E6008BF4D60E5
:1039B0000E68BD6A013E002D0E60BFD0D7E90761D9
:1039C0006B68B160396A07F1180293424E6008BF14
:1039D0006960296800220139BA622960AEE74FF0B8
:1039E000FF35002005E04FF0FF3544F6A402C2F297
:1039F0000002156040F2B411C2F200010968C96A00
:103A000001EB81015EF82110012944F60411C2F294
:103A1000000188BF01200968002918BF0120BDE806
:103A2000F08F00002DE9F04F81B0FFF70DFB44F659
:103A30006400C2F20000016801390160006830B121
:103A40000024FFF711FB204601B0BDE8F08F44F6DB
:103A50005C00C2F2000000680028F1D044F6B80A09
:103A6000C2F2000ADAF8001044F6041940F2B41861
:103A70000029C2F20009C2F2000863D044F66C0BC0
:103A800040F2C4144FF0000C4FF0010EC2F2000BD4
:103A9000C2F20004DAF80C10CE68D6E90725B76A3E
:103AA00095607868356A06F1180188426A6008BF37
:103AB0007D603868C6F828C001383860D6E9020150
:103AC000756981606A68F168371DBA42486008BF4D
:103AD0006960286801382860F06ADBF800100EFA87
:103AE00000F21143CBF8001000EB800104EB8102DF
:103AF00055687261AB68B560F360AB68AF605F60DA
:103B000054F821305A1C44F82120D8F80010C96A12
:103B1000884288BFC9F800E0DAF800000028B9D16F
:103B200040F2B810C2F200000168096819B10068DB
:103B3000C068006801E04FF0FF3044F6A401C2F213
:103B40000001086044F6B404C2F2000426685EB1C5
:103B5000012700BFFFF79CFE002818BFC9F80070BE
:103B6000013EF7D100202060D9F8000000283FF482
:103B700067AFD8F800004EF60450CEF200004FF0C8
:103B800080510160BFF34F8F0124BFF36F8F58E75F
:103B90000FB4054B10B503A9044A029800F018F8B9
:103BA00010BC5DF814FB0000892B00080000002009
:103BB00002E008C8121F08C1002AFAD170477047F6
:103BC000002001E001C1121F002AFBD17047000054
:103BD0002DE9FF4F8BB088460546002606E02528D4
:103BE0000BD0DDE90D1290476D1C761C287800285B
:103BF000F5D10FB03046BDE8F08F0024A146A246B3
:103C00000122AE4900E0044315F8013F203B02FACF
:103C100003F00842F7D128782A2810D06FF02F023D
:103C20002878A0F13001092915D809EB890102EBA8
:103C3000410144F0020400EB01096D1CF0E758F863
:103C4000041B5FEA010903D544F40054C9F10009DB
:103C500044F002046D1C28782E2817D115F8010FA6
:103C600044F004042A280ED06FF02F022878A0F127
:103C7000300109290AD80AEB8A0102EB410100EB65
:103C8000010A6D1CF2E758F804AB6D1C28786C280B
:103C90000FD006DC4C2817D068280DD06A2814D124
:103CA00004E0742810D07A280FD10DE044F40014F9
:103CB0000AE044F4801401E044F44014697881423D
:103CC00002D104F580146D1C6D1C2878692865D01C
:103CD00006DC00288DD0632827D0642806D15DE05B
:103CE0006E2808D073282AD0752877D0DDE90D1208
:103CF0009047761CE0E0C4F30250022809D0032864
:103D00000DD0D8F8001004280DD00E6008F104087A
:103D1000D2E0D8F80010F217C1E90062F6E7D8F84F
:103D200000100E80F2E70E70F0E718F8041B8DF813
:103D3000001000208DF80100EB46012003E058F848
:103D400004BB4FF0FF3061074FF0000701D40AE0D9
:103D50007F1C57450DDA8742FADB1BF80710002954
:103D6000F6D106E07F1C8742FCDB1BF80710002918
:103D7000F8D1DDE90D23A9EB07008146214600F0CB
:103D8000B1F83044C61904E0DDE90D121BF8010B4F
:103D900090477F1EF8D22146484688E058F8040B29
:103DA000C4F302514FF00A0B032900D100B20429D9
:103DB00000D140B2002802DA40422D2102E0210564
:103DC00005D52B218DF82410012104E006E0E10740
:103DD00010D02021F6E708AF089113E058F8040B43
:103DE000C4F302514FF00A0B032900D180B2042919
:103DF00000D1C0B20021EEE75946FCF736FA303167
:103E000007F8011D0028F7D1ADEB070000F1200BEA
:103E1000600702D524F4803401E04FF0010ADA454E
:103E200002DDAAEB0B0000E00020824600EB0B0154
:103E300008980144A9EB01000A90E00306D4DDE9EB
:103E40000D2321460A9800F04DF806444FF0000972
:103E500008E009A911F80900DDE90D12904709F100
:103E60000109761C08998945F3DBE0030CD5DDE9EF
:103E70000D2321460A9800F035F8064404E0DDE9F8
:103E80000D1230209047761CBAF10001AAF1010A08
:103E9000F5DC05E0DDE90D1217F8010B9047761C03
:103EA000BBF10001ABF1010BF4DC0A982146DDE91E
:103EB0000D2300F005F806446D1C97E60928010063
:103EC0002DE9F041044600251E461746880404D417
:103ED00005E039462020B0476D1C641EF9D5284600
:103EE000BDE8F0812DE9F041044600251E469046CC
:103EF000C80301D5302700E02027880404D505E059
:103F000041463846B0476D1C641EF9D52846BDE8C9
:103F1000F081000000000000000001020304060719
:103F20000809000000000102030400001F00000057
:103F3000503F00080000002098000000B03B00083F
:103F4000E83F000898000020704C0000C03B0008CB
:103F5000000000000024F400000000000000E04029
:103F6000CDCCCC3D9A99993E0000000000000000A5
:103F70000000000000000000000000000000000041
:103F8000000000000000AF430000FA430000003FC3
:103F9000CDCC4C3F0000000000000000CDCC4441DF
:103FA000CDCCA44066669E400000000000000000EA
:103FB0000000000000000000000000000000000001
:103FC000000000000080BB4400401C460000A040F0
:103FD000CDCC4C3F000000000100000010000000AC
:083FE000AAAAAAAA0000000031
:04000005080001AD41
:00000001FF
